{
  "address": "0x8C0971be6a98DcC61958fFDEc4259e5ee833689b",
  "abi": [
    {
      "inputs": [
        {
          "internalType": "address",
          "name": "_wNative",
          "type": "address"
        },
        {
          "internalType": "uint256",
          "name": "_swapGasEstimate",
          "type": "uint256"
        }
      ],
      "stateMutability": "nonpayable",
      "type": "constructor"
    },
    {
      "anonymous": false,
      "inputs": [
        {
          "indexed": true,
          "internalType": "address",
          "name": "_asset",
          "type": "address"
        },
        {
          "indexed": false,
          "internalType": "uint256",
          "name": "amount",
          "type": "uint256"
        }
      ],
      "name": "Recovered",
      "type": "event"
    },
    {
      "anonymous": false,
      "inputs": [
        {
          "indexed": true,
          "internalType": "bytes32",
          "name": "role",
          "type": "bytes32"
        },
        {
          "indexed": true,
          "internalType": "bytes32",
          "name": "previousAdminRole",
          "type": "bytes32"
        },
        {
          "indexed": true,
          "internalType": "bytes32",
          "name": "newAdminRole",
          "type": "bytes32"
        }
      ],
      "name": "RoleAdminChanged",
      "type": "event"
    },
    {
      "anonymous": false,
      "inputs": [
        {
          "indexed": true,
          "internalType": "bytes32",
          "name": "role",
          "type": "bytes32"
        },
        {
          "indexed": true,
          "internalType": "address",
          "name": "account",
          "type": "address"
        },
        {
          "indexed": true,
          "internalType": "address",
          "name": "sender",
          "type": "address"
        }
      ],
      "name": "RoleGranted",
      "type": "event"
    },
    {
      "anonymous": false,
      "inputs": [
        {
          "indexed": true,
          "internalType": "bytes32",
          "name": "role",
          "type": "bytes32"
        },
        {
          "indexed": true,
          "internalType": "address",
          "name": "account",
          "type": "address"
        },
        {
          "indexed": true,
          "internalType": "address",
          "name": "sender",
          "type": "address"
        }
      ],
      "name": "RoleRevoked",
      "type": "event"
    },
    {
      "anonymous": false,
      "inputs": [
        {
          "indexed": true,
          "internalType": "address",
          "name": "_adapter",
          "type": "address"
        },
        {
          "indexed": false,
          "internalType": "uint256",
          "name": "_newEstimate",
          "type": "uint256"
        }
      ],
      "name": "UpdatedGasEstimate",
      "type": "event"
    },
    {
      "anonymous": false,
      "inputs": [
        {
          "indexed": true,
          "internalType": "address",
          "name": "_tokenFrom",
          "type": "address"
        },
        {
          "indexed": true,
          "internalType": "address",
          "name": "_tokenTo",
          "type": "address"
        },
        {
          "indexed": false,
          "internalType": "uint256",
          "name": "_amountIn",
          "type": "uint256"
        },
        {
          "indexed": false,
          "internalType": "uint256",
          "name": "_amountOut",
          "type": "uint256"
        }
      ],
      "name": "YakAdapterSwap",
      "type": "event"
    },
    {
      "inputs": [],
      "name": "DEFAULT_ADMIN_ROLE",
      "outputs": [
        {
          "internalType": "bytes32",
          "name": "",
          "type": "bytes32"
        }
      ],
      "stateMutability": "view",
      "type": "function"
    },
    {
      "inputs": [],
      "name": "MAINTAINER_ROLE",
      "outputs": [
        {
          "internalType": "bytes32",
          "name": "",
          "type": "bytes32"
        }
      ],
      "stateMutability": "view",
      "type": "function"
    },
    {
      "inputs": [
        {
          "internalType": "address",
          "name": "addedMaintainer",
          "type": "address"
        }
      ],
      "name": "addMaintainer",
      "outputs": [],
      "stateMutability": "nonpayable",
      "type": "function"
    },
    {
      "inputs": [
        {
          "internalType": "bytes32",
          "name": "role",
          "type": "bytes32"
        }
      ],
      "name": "getRoleAdmin",
      "outputs": [
        {
          "internalType": "bytes32",
          "name": "",
          "type": "bytes32"
        }
      ],
      "stateMutability": "view",
      "type": "function"
    },
    {
      "inputs": [
        {
          "internalType": "bytes32",
          "name": "role",
          "type": "bytes32"
        },
        {
          "internalType": "address",
          "name": "account",
          "type": "address"
        }
      ],
      "name": "grantRole",
      "outputs": [],
      "stateMutability": "nonpayable",
      "type": "function"
    },
    {
      "inputs": [
        {
          "internalType": "bytes32",
          "name": "role",
          "type": "bytes32"
        },
        {
          "internalType": "address",
          "name": "account",
          "type": "address"
        }
      ],
      "name": "hasRole",
      "outputs": [
        {
          "internalType": "bool",
          "name": "",
          "type": "bool"
        }
      ],
      "stateMutability": "view",
      "type": "function"
    },
    {
      "inputs": [],
      "name": "name",
      "outputs": [
        {
          "internalType": "string",
          "name": "",
          "type": "string"
        }
      ],
      "stateMutability": "view",
      "type": "function"
    },
    {
      "inputs": [
        {
          "internalType": "uint256",
          "name": "_amountIn",
          "type": "uint256"
        },
        {
          "internalType": "address",
          "name": "_tokenIn",
          "type": "address"
        },
        {
          "internalType": "address",
          "name": "_tokenOut",
          "type": "address"
        }
      ],
      "name": "query",
      "outputs": [
        {
          "internalType": "uint256",
          "name": "",
          "type": "uint256"
        }
      ],
      "stateMutability": "view",
      "type": "function"
    },
    {
      "inputs": [
        {
          "internalType": "uint256",
          "name": "_amount",
          "type": "uint256"
        }
      ],
      "name": "recoverAVAX",
      "outputs": [],
      "stateMutability": "nonpayable",
      "type": "function"
    },
    {
      "inputs": [
        {
          "internalType": "address",
          "name": "_tokenAddress",
          "type": "address"
        },
        {
          "internalType": "uint256",
          "name": "_tokenAmount",
          "type": "uint256"
        }
      ],
      "name": "recoverERC20",
      "outputs": [],
      "stateMutability": "nonpayable",
      "type": "function"
    },
    {
      "inputs": [
        {
          "internalType": "address",
          "name": "removedMaintainer",
          "type": "address"
        }
      ],
      "name": "removeMaintainer",
      "outputs": [],
      "stateMutability": "nonpayable",
      "type": "function"
    },
    {
      "inputs": [
        {
          "internalType": "bytes32",
          "name": "role",
          "type": "bytes32"
        },
        {
          "internalType": "address",
          "name": "account",
          "type": "address"
        }
      ],
      "name": "renounceRole",
      "outputs": [],
      "stateMutability": "nonpayable",
      "type": "function"
    },
    {
      "inputs": [
        {
          "internalType": "bytes32",
          "name": "role",
          "type": "bytes32"
        }
      ],
      "name": "renounceRole",
      "outputs": [],
      "stateMutability": "nonpayable",
      "type": "function"
    },
    {
      "inputs": [
        {
          "internalType": "address",
          "name": "_token",
          "type": "address"
        },
        {
          "internalType": "address",
          "name": "_spender",
          "type": "address"
        }
      ],
      "name": "revokeAllowance",
      "outputs": [],
      "stateMutability": "nonpayable",
      "type": "function"
    },
    {
      "inputs": [
        {
          "internalType": "bytes32",
          "name": "role",
          "type": "bytes32"
        },
        {
          "internalType": "address",
          "name": "account",
          "type": "address"
        }
      ],
      "name": "revokeRole",
      "outputs": [],
      "stateMutability": "nonpayable",
      "type": "function"
    },
    {
      "inputs": [
        {
          "internalType": "uint256",
          "name": "_estimate",
          "type": "uint256"
        }
      ],
      "name": "setSwapGasEstimate",
      "outputs": [],
      "stateMutability": "nonpayable",
      "type": "function"
    },
    {
      "inputs": [
        {
          "internalType": "bytes4",
          "name": "interfaceId",
          "type": "bytes4"
        }
      ],
      "name": "supportsInterface",
      "outputs": [
        {
          "internalType": "bool",
          "name": "",
          "type": "bool"
        }
      ],
      "stateMutability": "view",
      "type": "function"
    },
    {
      "inputs": [
        {
          "internalType": "uint256",
          "name": "_amountIn",
          "type": "uint256"
        },
        {
          "internalType": "uint256",
          "name": "_amountOut",
          "type": "uint256"
        },
        {
          "internalType": "address",
          "name": "_fromToken",
          "type": "address"
        },
        {
          "internalType": "address",
          "name": "_toToken",
          "type": "address"
        },
        {
          "internalType": "address",
          "name": "_to",
          "type": "address"
        }
      ],
      "name": "swap",
      "outputs": [],
      "stateMutability": "nonpayable",
      "type": "function"
    },
    {
      "inputs": [],
      "name": "swapGasEstimate",
      "outputs": [
        {
          "internalType": "uint256",
          "name": "",
          "type": "uint256"
        }
      ],
      "stateMutability": "view",
      "type": "function"
    },
    {
      "inputs": [
        {
          "internalType": "address",
          "name": "newOwner",
          "type": "address"
        }
      ],
      "name": "transferOwnership",
      "outputs": [],
      "stateMutability": "nonpayable",
      "type": "function"
    },
    {
      "stateMutability": "payable",
      "type": "receive"
    }
  ],
  "transactionHash": "0xffa2c1ddebd76a7325ffab076a59372c66a2ee8864710ff6e0c789c8d802d7d0",
  "args": [
    "0x82aF49447D8a07e3bd95BD0d56f35241523fBab1",
    80000
  ],
  "solcInputHash": "53947a290f318b2ac07d10649c872dfb",
  "bytecode": "0x60a0604052346200003b575b62000020620000196200012f565b90620001d8565b6040516119aa620007d182396080518161154a01526119aa90f35b62000044600080fd5b6200000b565b600080fd5b50634e487b7160e01b600052604160045260246000fd5b90601f01601f191681019081106001600160401b038211176200008857604052565b620000926200004f565b604052565b90620000ae620000a660405190565b928362000066565b565b6001600160a01b031690565b90565b620000ca81620000b0565b036200004a57565b90505190620000ae82620000bf565b80620000ca565b90505190620000ae82620000e1565b9190620000bc9060408482031262000120575b620001168185620000d2565b93602001620000e8565b62000129600080fd5b6200010a565b620001526200217b80380380620001468162000097565b928339810190620000f7565b9091565b60209062000177906001600160401b0381116200017b57601f01601f191690565b0190565b620001856200004f565b601f01601f191690565b90620001a56200019f8362000156565b62000097565b918252565b620001b6600c6200018f565b6b2ba0bb30bc20b230b83a32b960a11b602082015290565b620000bc620001aa565b90620000ae91620001f382620001ed620001ce565b620001fc565b608052620007c5565b9062000216620000ae92620002106200025c565b62000615565b620007c5565b620000bc620000bc620000bc9290565b620000bc60006200021c565b7f339759585899103d2ace64958e37e18ccb0504652c81d4a1b8aa80fe2126ab9590565b620000ae336200027681620002706200022c565b62000280565b6200027062000238565b90620000ae9162000302565b905b600052602052604060002090565b620000bc90620000b0906001600160a01b031682565b620000bc906200029c565b620000bc90620002b2565b906200028e90620002bd565b9060ff905b9181191691161790565b90620002f6620000bc620002fe92151590565b8254620002d4565b9055565b906200031762000313828462000391565b1590565b62000320575050565b620003466001620003408360006200033987826200028c565b01620002c8565b620002e3565b33906200038062000379620003797f2f8788117e7eff1d82e926ec794901d17c78024a50270940304540a733656f0d9590565b92620002bd565b926200038b60405190565b600090a4565b620000bc91620003a99162000339600091826200028c565b5460ff1690565b15620003b857565b60405162461bcd60e51b815260206004820152601460248201527f496e76616c69642061646170746572206e616d650000000000000000000000006044820152606490fd5b50634e487b7160e01b600052602260045260246000fd5b90600160028304921680156200043b575b60208310146200043157565b620000ae620003fd565b91607f169162000425565b9160001960089290920291821b911b620002d9565b919062000470620000bc620002fe936200021c565b90835462000446565b620000ae916000916200045b565b81811062000493575050565b80620004a3600060019362000479565b0162000487565b9190601f8111620004ba57505050565b620004ce620000ae93600052602060002090565b906020601f840181900483019310620004f2575b6020601f90910104019062000487565b9091508190620004e2565b9060001960089091021c191690565b816200051891620004fd565b906002021790565b906200052a815190565b906001600160401b038211620005f9575b62000553826200054c855462000414565b85620004aa565b602090601f83116001146200058657620002fe9291600091836200057a575b50506200050c565b01519050388062000572565b601f198316916200059c85600052602060002090565b9260005b818110620005e057509160029391856001969410620005c3575b50505002019055565b620005d5910151601f841690620004fd565b9055388080620005ba565b91936020600181928787015181550195019201620005a0565b620006036200004f565b6200053b565b90620000ae9162000520565b620000ae906200064362000627825190565b6200063b6200063760006200021c565b9190565b1415620003b0565b600262000609565b156200065357565b60405162461bcd60e51b815260206004820152602860248201527f4d61696e7461696e61626c653a2043616c6c6572206973206e6f742061206d6160448201526734b73a30b4b732b960c11b6064820152608490fd5b620000ae90620006cd620006c733620006c162000238565b62000391565b6200064b565b62000747565b15620006db57565b60405162461bcd60e51b815260206004820152601460248201527f496e76616c6964206761732d657374696d6174650000000000000000000000006044820152606490fd5b9060001990620002d9565b906200073f620000bc620002fe926200021c565b825462000720565b620007606200075760006200021c565b821415620006d3565b6200076d8160016200072b565b6200077830620002bd565b620007c0620007a87ff43f23b7a28e6f8ce6843a21bd7b48bce778aa913b8c8cf459edf7d770e8d38a92620002bd565b92620007b360405190565b9182918290815260200190565b0390a2565b620000ae90620006a956fe6080604052600436101561001e575b361561001c5761001c600080fd5b005b60003560e01c806301ffc9a7146101ae57806306fdde03146101a5578063248a9ca31461019c5780632f2ff15d1461019357806336568abe1461018a5780634ebb79161461018157806369cff80d146101785780636b453c1f1461016f5780637ae267731461016657806384a33e631461015d5780638980f11f146101545780638bb9c5bf1461014b57806391d1485414610142578063a217fddf14610139578063d547741f14610130578063d8baf7cf14610127578063eab90da61461011e578063ef99893a14610115578063f2fde38b1461010c5763f87422540361000e5761010761093b565b61000e565b506101076108e8565b506101076108bd565b50610107610854565b506101076107d3565b506101076107ab565b50610107610781565b50610107610737565b50610107610710565b506101076106e8565b50610107610690565b50610107610668565b50610107610619565b506101076105d2565b50610107610589565b50610107610561565b50610107610534565b506101076104a6565b50610107610440565b50610107610210565b600080fd5b6001600160e01b03191690565b6101d2816101bc565b036101b757565b905035906101e6826101c9565b565b906101fc916020818303126101ff576101d9565b90565b610207600080fd5b6101d9565b9052565b5034610243575b61023f61022d6102283660046101e8565b610965565b60405191829182901515815260200190565b0390f35b61024b600080fd5b610217565b600091031261025b57565b6101e6600080fd5b50634e487b7160e01b600052600060045260246000fd5b50634e487b7160e01b600052602260045260246000fd5b90600160028304921680156102b4575b60208310146102ac57565b6101e661027a565b91607f16916102a1565b805460009392916102db6102d183610291565b8085529360200190565b916001811690811561032d57506001146102f457505050565b6103079192939450600052602060002090565b916000925b8184106103195750500190565b80548484015260209093019260010161030c565b92949550505060ff1916825215156020020190565b906101fc916102be565b601f01601f191690565b50634e487b7160e01b600052604160045260246000fd5b90601f01601f191681019081106001600160401b0382111761038e57604052565b610396610356565b604052565b906101e66103b5926103ac60405190565b93848092610342565b038361036d565b6101fc911561039b576103cd610263565b61039b565b6101fc600060026103bc565b60005b8381106103f15750506000910152565b81810151838201526020016103e1565b61042261034c60209361042b93610416815190565b80835293849260200190565b958691016103de565b0190565b60208082526101fc92910190610401565b5034610469575b610452366004610250565b61023f61045d6103d2565b6040519182918261042f565b610471600080fd5b610447565b806101d2565b905035906101e682610476565b906101fc916020818303121561047c576104a1600080fd5b61047c565b50346104d4575b61023f6104c36104be366004610489565b610a19565b6040515b9182918290815260200190565b6104dc600080fd5b6104ad565b6001600160a01b031690565b6101d2816104e1565b905035906101e6826104ed565b91906101fc90604084820312610527575b61051e818561047c565b936020016104f6565b61052f600080fd5b610514565b5034610554575b61054f610549366004610503565b90610a58565b604051005b61055c600080fd5b61053b565b503461057c575b61054f610576366004610503565b90610c2a565b610584600080fd5b610568565b50346105a3575b61054f61059e366004610489565b6112fd565b6105ab600080fd5b610590565b6101fc916008021c81565b906101fc91546105b0565b6101fc600060016105bb565b50346105ef575b6105e4366004610250565b61023f6104c36105c6565b6105f7600080fd5b6105d9565b906101fc91602081830312156104f657610614600080fd5b6104f6565b5034610633575b61054f61062e3660046105fc565b6115df565b61063b600080fd5b610620565b91906101fc9060408482031261065b575b61051e81856104f6565b610663600080fd5b610651565b5034610683575b61054f61067d366004610640565b906111a9565b61068b600080fd5b61066f565b50346106aa575b61054f6106a5366004610489565b611171565b6106b2600080fd5b610697565b91906101fc906040848203126106db575b6106d281856104f6565b9360200161047c565b6106e3600080fd5b6106c8565b5034610703575b61054f6106fd3660046106b7565b9061126b565b61070b600080fd5b6106ef565b503461072a575b61054f610725366004610489565b611601565b610732600080fd5b610717565b5034610755575b61023f61022d61074f366004610503565b906109e9565b61075d600080fd5b61073e565b6101fc6101fc6101fc9290565b6101fc6000610762565b6101fc61076f565b503461079e575b610793366004610250565b61023f6104c3610779565b6107a6600080fd5b610788565b50346107c6575b61054f6107c0366004610503565b90610bbc565b6107ce600080fd5b6107b2565b50346107ed575b61054f6107e83660046105fc565b6115f0565b6107f5600080fd5b6107da565b919060a083820312610847575b610811818461047c565b9261081f826020830161047c565b926101fc61083084604085016104f6565b9361083e81606086016104f6565b936080016104f6565b61084f600080fd5b610807565b5034610872575b61054f6108693660046107fa565b939290926113be565b61087a600080fd5b61085b565b90916060828403126108b0575b6101fc610899848461047c565b936108a781602086016104f6565b936040016104f6565b6108b8600080fd5b61088c565b50346108db575b61023f6104c36108d536600461087f565b91611306565b6108e3600080fd5b6108c4565b5034610902575b61054f6108fd3660046105fc565b61160b565b61090a600080fd5b6108ef565b7f339759585899103d2ace64958e37e18ccb0504652c81d4a1b8aa80fe2126ab9590565b6101fc61090f565b5034610958575b61094d366004610250565b61023f6104c3610933565b610960600080fd5b610942565b610975637965db0b60e01b6101bc565b61097e826101bc565b1490811561098a575090565b6101fc915061100b565b905b600052602052604060002090565b6101fc906104e1906001600160a01b031682565b6101fc906109a4565b6101fc906109b8565b90610996906109c1565b6101fc905b60ff1690565b6101fc90546109d4565b6101fc91610a03916109fd60009182610994565b016109ca565b6109df565b6101fc9081565b6101fc9054610a08565b6001610a326101fc92610a2a600090565b506000610994565b01610a0f565b906101e691610a4e610a4982610a19565b610a62565b906101e691610c79565b906101e691610a38565b6101e6903390610afe565b6101fc9081906001600160a01b031681565b6101fc90610762565b61042b610aa092602092610a9a815190565b94859290565b938491016103de565b610ae16101fc9392610adb610adb9376020b1b1b2b9b9a1b7b73a3937b61d1030b1b1b7bab73a1604d1b815260170190565b90610a88565b7001034b99036b4b9b9b4b733903937b6329607d1b815260110190565b90610b10610b0c82846109e9565b1590565b610b18575050565b610b9d916101fc610b51610b4b610b31610b85956109b8565b610b45610b3f601492610a6d565b91610762565b90610ed7565b92610a7f565b610b60602091610b4583610762565b92610b79610b6d60405190565b94859384019283610aa9565b9081038252038261036d565b60405162461bcd60e51b81529182916004830161042f565b0390fd5b906101e691610bb2610a4982610a19565b906101e691610cef565b906101e691610ba1565b15610bcd57565b60405162461bcd60e51b815260206004820152602f60248201527f416363657373436f6e74726f6c3a2063616e206f6e6c792072656e6f756e636560448201526e103937b632b9903337b91039b2b63360891b6064820152608490fd5b6101e69190610c4a610c3b336104e1565b610c44846104e1565b14610bc6565b610cef565b9060ff905b9181191691161790565b90610c6e6101fc610c7592151590565b8254610c4f565b9055565b90610c87610b0c82846109e9565b610c8f575050565b610ca96001610ca48360006109fd8782610994565b610c5e565b3390610cdf610cd9610cd97f2f8788117e7eff1d82e926ec794901d17c78024a50270940304540a733656f0d9590565b926109c1565b92610ce960405190565b600090a4565b90610cfa81836109e9565b610d02575050565b610d166000610ca483826109fd8782610994565b3390610cdf610cd9610cd97ff6391f5c32d9c69d2a47ea670b442974b53935d1edc7fd64eb21e047a839171b9590565b50634e487b7160e01b600052601160045260246000fd5b81810292918115918404141715610d7057565b6101e6610d46565b91908201809211610d7057565b906101e6610d9260405190565b928361036d565b60209061042b906001600160401b038111610db857601f01601f191690565b610dc0610356565b61034c565b90610dd7610dd283610d99565b610d85565b918252565b369037565b906101e6610df7610df184610dc5565b93610d99565b601f190160208401610ddc565b50634e487b7160e01b600052603260045260246000fd5b906001602091610e29845190565b811015610e37575b02010190565b610e3f610e04565b610e31565b6001908015610e51570390565b610e59610d46565b0390565b6109d96101fc6101fc9290565b6101fc90610e82610e7e6101fc9460ff1690565b9190565b901c90565b15610e8e57565b60405162461bcd60e51b815280610b9d600482016020808252818101527f537472696e67733a20686578206c656e67746820696e73756666696369656e74604082015260600190565b9190600290610f08610f03610ef483610eef86610762565b610d5d565b610efd85610762565b90610d78565b610de1565b916000916030610f20610f1a85610762565b86610e1b565b53610f58610f4f600f60fb1b92610eef6001958695881a610f49610f4388610762565b8b610e1b565b53610762565b610efd83610762565b915b610f7b575b50506101fc9293610f75610e7e6101fc93610762565b14610e87565b9094610f8682610762565b86111561100557610ff2610fec8392610fcf610fb26f181899199a1a9b1b9c1cb0b131b232b360811b90565b610fbc600f610762565b83166010811015610ff8575b1a60f81b90565b861a610fdb8a89610e1b565b53610fe66004610e5d565b90610e6a565b96610e44565b91610f5a565b611000610e04565b610fc8565b94610f5f565b61102461101e6301ffc9a760e01b6101bc565b916101bc565b1490565b1561102f57565b60405162461bcd60e51b815260206004820152602860248201527f4d61696e7461696e61626c653a2043616c6c6572206973206e6f742061206d6160448201526734b73a30b4b732b960c11b6064820152608490fd5b6101e6906110a361109e335b61109961090f565b6109e9565b611028565b61110c565b156110af57565b60405162461bcd60e51b8152602060048201526014602482015273496e76616c6964206761732d657374696d61746560601b6044820152606490fd5b9060001990610c54565b906111056101fc610c7592610762565b82546110eb565b6111216111196000610762565b8214156110a8565b61112c8160016110f5565b611135306109c1565b61116c6111627ff43f23b7a28e6f8ce6843a21bd7b48bce778aa913b8c8cf459edf7d770e8d38a926109c1565b926104c760405190565b0390a2565b6101e690611085565b6101e6919061118b61109e33611091565b906111986101e6926109c1565b906111a36000610762565b91611736565b906101e69161117a565b6101e691906111c461109e33611091565b611215565b156111d057565b60405162461bcd60e51b815260206004820152601e60248201527f59616b416461707465723a204e6f7468696e6720746f207265636f76657200006044820152606490fd5b61122a6112226000610762565b835b116111c9565b61123e82611237836109c1565b3390611661565b61116c6111627f8c1256b8896378cd5044f80c202f9772b9d77dc85c8a6eb51967210b09bfaa28926109c1565b906101e6916111b3565b6101e69061128561109e33611091565b6112ad565b506040513d6000823e3d90fd5b6104e16101fc6101fc9290565b6101fc90611297565b61123e60006112c46112be82610762565b84611224565b80808080866112da6112d5336109c1565b6109c1565b8282156112f4575bf16112a4576112ef61128a565b6112a4565b506108fc6112e2565b6101e690611275565b6101fc929190611541565b905051906101e682610476565b906101fc916020818303121561131157611336600080fd5b611311565b61020c906104e1565b6020810192916101e6919061133b565b91908203918211610d7057565b1561136857565b60405162461bcd60e51b8152602060048201526017602482015276125b9cdd59999a58da595b9d08185b5bdd5b9d0b5bdd5d604a1b6044820152606490fd5b9081526040810192916101e69160200152565b0152565b9361146761146f916113d26112d5876109c1565b906370a08231916113e260405190565b926113ed8160e01b90565b84528888888c602088806114048a60048301611344565b0381895afa978815611534575b6000986114f8575b5086602096946114429461144d999794611432946115a8565b6040519586948593849360e01b90565b835260048301611344565b03915afa9081156114eb575b6000916114bd575b50611354565b821115611361565b6114a261149c7fe2bdbc6b7225eb0a972ac943c485a6cc05f7c6811838bce8903f23200fb744fa936109c1565b936109c1565b936114b86114af60405190565b928392836113a7565b0390a3565b6114de915060203d81116114e4575b6114d6818361036d565b81019061131e565b38611461565b503d6114cc565b6114f361128a565b611459565b61143291985096602096946114429482979461152361144d9b8b3d81116114e4576114d6818361036d565b9b9450949799509450949650611419565b61153c61128a565b611411565b919291906000937f00000000000000000000000000000000000000000000000000000000000000009161157c611576846104e1565b916104e1565b149182611591575b505061158d5750565b9150565b6115a0919250611576906104e1565b143880611584565b9150506101e6926115b8306109c1565b6115c4611576836104e1565b036115ce57505050565b6115da6101e6936109c1565b611661565b6101e6906115eb61090f565b610a58565b6101e6906115fc61090f565b610bbc565b6101e69033610576565b6101e690339061162361161c61076f565b9182610a58565b610c2a565b61164161163b6101fc9263ffffffff1690565b60e01b90565b6101bc565b9160206101e69294936113ba6040820196600083019061133b565b6116a46004926116956101e69561167b63a9059cbb611628565b9261168560405190565b9687946020860190815201611646565b6020820181038252038361036d565b611913565b9160206101e69294936116c46040820196600083019061133b565b019061133b565b156116d257565b60405162461bcd60e51b815260206004820152603660248201527f5361666545524332303a20617070726f76652066726f6d206e6f6e2d7a65726f60448201527520746f206e6f6e2d7a65726f20616c6c6f77616e636560501b6064820152608490fd5b6116a46004926116956101e69561176360008461175282610762565b8414918215611770575b50506116cb565b61167b63095ea7b3611628565b909150602061177e896109c1565b63dd62ed3e906117aa611790306109c1565b926117b561179d60405190565b9788958694859460e01b90565b8452600484016116a9565b03915afa918215611806575b6000926117de575b50610e7e6117d691610762565b14843861175c565b6117d69192506117fe610e7e9160203d81116114e4576114d6818361036d565b9291506117c9565b61180e61128a565b6117c1565b3d1561182d576118223d610dc5565b903d6000602084013e565b606090565b1561183957565b60405162461bcd60e51b815280610b9d600482016020808252818101527f5361666545524332303a206c6f772d6c6576656c2063616c6c206661696c6564604082015260600190565b8015156101d2565b905051906101e682611882565b906101fc916020818303121561188a576118af600080fd5b61188a565b156118bb57565b60405162461bcd60e51b815260206004820152602a60248201527f5361666545524332303a204552433230206f7065726174696f6e20646964206e6044820152691bdd081cdd58d8d9595960b21b6064820152608490fd5b60009161192083926109c1565b9082602082019151925af161193c611936611813565b91611832565b805161194b610e7e6000610762565b116119535750565b61196f8160206119646101e6945190565b818301019101611897565b6118b456fea2646970667358221220b54e48d3a1379f2961e97af2fda71af8c8af5f26f0873fcf043ce19472553ec164736f6c63430008110033",
  "devdoc": {
    "kind": "dev",
    "methods": {
      "getRoleAdmin(bytes32)": {
        "details": "Returns the admin role that controls `role`. See {grantRole} and {revokeRole}. To change a role's admin, use {_setRoleAdmin}."
      },
      "grantRole(bytes32,address)": {
        "details": "Grants `role` to `account`. If `account` had not been already granted `role`, emits a {RoleGranted} event. Requirements: - the caller must have ``role``'s admin role. May emit a {RoleGranted} event."
      },
      "hasRole(bytes32,address)": {
        "details": "Returns `true` if `account` has been granted `role`."
      },
      "renounceRole(bytes32,address)": {
        "details": "Revokes `role` from the calling account. Roles are often managed via {grantRole} and {revokeRole}: this function's purpose is to provide a mechanism for accounts to lose their privileges if they are compromised (such as when a trusted device is misplaced). If the calling account had been revoked `role`, emits a {RoleRevoked} event. Requirements: - the caller must be `account`. May emit a {RoleRevoked} event."
      },
      "revokeRole(bytes32,address)": {
        "details": "Revokes `role` from `account`. If `account` had been granted `role`, emits a {RoleRevoked} event. Requirements: - the caller must have ``role``'s admin role. May emit a {RoleRevoked} event."
      },
      "supportsInterface(bytes4)": {
        "details": "See {IERC165-supportsInterface}."
      }
    },
    "version": 1
  },
  "userdoc": {
    "kind": "user",
    "methods": {},
    "version": 1
  },
  "storageLayout": {
    "storage": [
      {
        "astId": 24,
        "contract": "src/contracts/adapters/WNativeAdapter.sol:WNativeAdapter",
        "label": "_roles",
        "offset": 0,
        "slot": "0",
        "type": "t_mapping(t_bytes32,t_struct(RoleData)19_storage)"
      },
      {
        "astId": 2899,
        "contract": "src/contracts/adapters/WNativeAdapter.sol:WNativeAdapter",
        "label": "swapGasEstimate",
        "offset": 0,
        "slot": "1",
        "type": "t_uint256"
      },
      {
        "astId": 2901,
        "contract": "src/contracts/adapters/WNativeAdapter.sol:WNativeAdapter",
        "label": "name",
        "offset": 0,
        "slot": "2",
        "type": "t_string_storage"
      }
    ],
    "types": {
      "t_address": {
        "encoding": "inplace",
        "label": "address",
        "numberOfBytes": "20"
      },
      "t_bool": {
        "encoding": "inplace",
        "label": "bool",
        "numberOfBytes": "1"
      },
      "t_bytes32": {
        "encoding": "inplace",
        "label": "bytes32",
        "numberOfBytes": "32"
      },
      "t_mapping(t_address,t_bool)": {
        "encoding": "mapping",
        "key": "t_address",
        "label": "mapping(address => bool)",
        "numberOfBytes": "32",
        "value": "t_bool"
      },
      "t_mapping(t_bytes32,t_struct(RoleData)19_storage)": {
        "encoding": "mapping",
        "key": "t_bytes32",
        "label": "mapping(bytes32 => struct AccessControl.RoleData)",
        "numberOfBytes": "32",
        "value": "t_struct(RoleData)19_storage"
      },
      "t_string_storage": {
        "encoding": "bytes",
        "label": "string",
        "numberOfBytes": "32"
      },
      "t_struct(RoleData)19_storage": {
        "encoding": "inplace",
        "label": "struct AccessControl.RoleData",
        "members": [
          {
            "astId": 16,
            "contract": "src/contracts/adapters/WNativeAdapter.sol:WNativeAdapter",
            "label": "members",
            "offset": 0,
            "slot": "0",
            "type": "t_mapping(t_address,t_bool)"
          },
          {
            "astId": 18,
            "contract": "src/contracts/adapters/WNativeAdapter.sol:WNativeAdapter",
            "label": "adminRole",
            "offset": 0,
            "slot": "1",
            "type": "t_bytes32"
          }
        ],
        "numberOfBytes": "64"
      },
      "t_uint256": {
        "encoding": "inplace",
        "label": "uint256",
        "numberOfBytes": "32"
      }
    }
  }
}