{
  "address": "0x10aA510d94E094Bd643677bd2964c3EE085Daffc",
  "abi": [
    {
      "inputs": [
        {
          "internalType": "string",
          "name": "_name",
          "type": "string"
        },
        {
          "internalType": "address",
          "name": "_factory",
          "type": "address"
        },
        {
          "internalType": "uint256",
          "name": "_swapGasEstimate",
          "type": "uint256"
        }
      ],
      "stateMutability": "nonpayable",
      "type": "constructor"
    },
    {
      "anonymous": false,
      "inputs": [
        {
          "indexed": true,
          "internalType": "address",
          "name": "_asset",
          "type": "address"
        },
        {
          "indexed": false,
          "internalType": "uint256",
          "name": "amount",
          "type": "uint256"
        }
      ],
      "name": "Recovered",
      "type": "event"
    },
    {
      "anonymous": false,
      "inputs": [
        {
          "indexed": true,
          "internalType": "bytes32",
          "name": "role",
          "type": "bytes32"
        },
        {
          "indexed": true,
          "internalType": "bytes32",
          "name": "previousAdminRole",
          "type": "bytes32"
        },
        {
          "indexed": true,
          "internalType": "bytes32",
          "name": "newAdminRole",
          "type": "bytes32"
        }
      ],
      "name": "RoleAdminChanged",
      "type": "event"
    },
    {
      "anonymous": false,
      "inputs": [
        {
          "indexed": true,
          "internalType": "bytes32",
          "name": "role",
          "type": "bytes32"
        },
        {
          "indexed": true,
          "internalType": "address",
          "name": "account",
          "type": "address"
        },
        {
          "indexed": true,
          "internalType": "address",
          "name": "sender",
          "type": "address"
        }
      ],
      "name": "RoleGranted",
      "type": "event"
    },
    {
      "anonymous": false,
      "inputs": [
        {
          "indexed": true,
          "internalType": "bytes32",
          "name": "role",
          "type": "bytes32"
        },
        {
          "indexed": true,
          "internalType": "address",
          "name": "account",
          "type": "address"
        },
        {
          "indexed": true,
          "internalType": "address",
          "name": "sender",
          "type": "address"
        }
      ],
      "name": "RoleRevoked",
      "type": "event"
    },
    {
      "anonymous": false,
      "inputs": [
        {
          "indexed": true,
          "internalType": "address",
          "name": "_adapter",
          "type": "address"
        },
        {
          "indexed": false,
          "internalType": "uint256",
          "name": "_newEstimate",
          "type": "uint256"
        }
      ],
      "name": "UpdatedGasEstimate",
      "type": "event"
    },
    {
      "anonymous": false,
      "inputs": [
        {
          "indexed": true,
          "internalType": "address",
          "name": "_tokenFrom",
          "type": "address"
        },
        {
          "indexed": true,
          "internalType": "address",
          "name": "_tokenTo",
          "type": "address"
        },
        {
          "indexed": false,
          "internalType": "uint256",
          "name": "_amountIn",
          "type": "uint256"
        },
        {
          "indexed": false,
          "internalType": "uint256",
          "name": "_amountOut",
          "type": "uint256"
        }
      ],
      "name": "YakAdapterSwap",
      "type": "event"
    },
    {
      "inputs": [],
      "name": "DEFAULT_ADMIN_ROLE",
      "outputs": [
        {
          "internalType": "bytes32",
          "name": "",
          "type": "bytes32"
        }
      ],
      "stateMutability": "view",
      "type": "function"
    },
    {
      "inputs": [],
      "name": "MAINTAINER_ROLE",
      "outputs": [
        {
          "internalType": "bytes32",
          "name": "",
          "type": "bytes32"
        }
      ],
      "stateMutability": "view",
      "type": "function"
    },
    {
      "inputs": [
        {
          "internalType": "address",
          "name": "addedMaintainer",
          "type": "address"
        }
      ],
      "name": "addMaintainer",
      "outputs": [],
      "stateMutability": "nonpayable",
      "type": "function"
    },
    {
      "inputs": [
        {
          "internalType": "bytes32",
          "name": "role",
          "type": "bytes32"
        }
      ],
      "name": "getRoleAdmin",
      "outputs": [
        {
          "internalType": "bytes32",
          "name": "",
          "type": "bytes32"
        }
      ],
      "stateMutability": "view",
      "type": "function"
    },
    {
      "inputs": [
        {
          "internalType": "bytes32",
          "name": "role",
          "type": "bytes32"
        },
        {
          "internalType": "address",
          "name": "account",
          "type": "address"
        }
      ],
      "name": "grantRole",
      "outputs": [],
      "stateMutability": "nonpayable",
      "type": "function"
    },
    {
      "inputs": [
        {
          "internalType": "bytes32",
          "name": "role",
          "type": "bytes32"
        },
        {
          "internalType": "address",
          "name": "account",
          "type": "address"
        }
      ],
      "name": "hasRole",
      "outputs": [
        {
          "internalType": "bool",
          "name": "",
          "type": "bool"
        }
      ],
      "stateMutability": "view",
      "type": "function"
    },
    {
      "inputs": [],
      "name": "name",
      "outputs": [
        {
          "internalType": "string",
          "name": "",
          "type": "string"
        }
      ],
      "stateMutability": "view",
      "type": "function"
    },
    {
      "inputs": [
        {
          "internalType": "uint256",
          "name": "_amountIn",
          "type": "uint256"
        },
        {
          "internalType": "address",
          "name": "_tokenIn",
          "type": "address"
        },
        {
          "internalType": "address",
          "name": "_tokenOut",
          "type": "address"
        }
      ],
      "name": "query",
      "outputs": [
        {
          "internalType": "uint256",
          "name": "",
          "type": "uint256"
        }
      ],
      "stateMutability": "view",
      "type": "function"
    },
    {
      "inputs": [
        {
          "internalType": "uint256",
          "name": "_amount",
          "type": "uint256"
        }
      ],
      "name": "recoverAVAX",
      "outputs": [],
      "stateMutability": "nonpayable",
      "type": "function"
    },
    {
      "inputs": [
        {
          "internalType": "address",
          "name": "_tokenAddress",
          "type": "address"
        },
        {
          "internalType": "uint256",
          "name": "_tokenAmount",
          "type": "uint256"
        }
      ],
      "name": "recoverERC20",
      "outputs": [],
      "stateMutability": "nonpayable",
      "type": "function"
    },
    {
      "inputs": [
        {
          "internalType": "address",
          "name": "removedMaintainer",
          "type": "address"
        }
      ],
      "name": "removeMaintainer",
      "outputs": [],
      "stateMutability": "nonpayable",
      "type": "function"
    },
    {
      "inputs": [
        {
          "internalType": "bytes32",
          "name": "role",
          "type": "bytes32"
        },
        {
          "internalType": "address",
          "name": "account",
          "type": "address"
        }
      ],
      "name": "renounceRole",
      "outputs": [],
      "stateMutability": "nonpayable",
      "type": "function"
    },
    {
      "inputs": [
        {
          "internalType": "bytes32",
          "name": "role",
          "type": "bytes32"
        }
      ],
      "name": "renounceRole",
      "outputs": [],
      "stateMutability": "nonpayable",
      "type": "function"
    },
    {
      "inputs": [
        {
          "internalType": "address",
          "name": "_token",
          "type": "address"
        },
        {
          "internalType": "address",
          "name": "_spender",
          "type": "address"
        }
      ],
      "name": "revokeAllowance",
      "outputs": [],
      "stateMutability": "nonpayable",
      "type": "function"
    },
    {
      "inputs": [
        {
          "internalType": "bytes32",
          "name": "role",
          "type": "bytes32"
        },
        {
          "internalType": "address",
          "name": "account",
          "type": "address"
        }
      ],
      "name": "revokeRole",
      "outputs": [],
      "stateMutability": "nonpayable",
      "type": "function"
    },
    {
      "inputs": [
        {
          "internalType": "address",
          "name": "_referrer",
          "type": "address"
        }
      ],
      "name": "setReferrer",
      "outputs": [],
      "stateMutability": "nonpayable",
      "type": "function"
    },
    {
      "inputs": [
        {
          "internalType": "uint256",
          "name": "_estimate",
          "type": "uint256"
        }
      ],
      "name": "setSwapGasEstimate",
      "outputs": [],
      "stateMutability": "nonpayable",
      "type": "function"
    },
    {
      "inputs": [
        {
          "internalType": "bytes4",
          "name": "interfaceId",
          "type": "bytes4"
        }
      ],
      "name": "supportsInterface",
      "outputs": [
        {
          "internalType": "bool",
          "name": "",
          "type": "bool"
        }
      ],
      "stateMutability": "view",
      "type": "function"
    },
    {
      "inputs": [
        {
          "internalType": "uint256",
          "name": "_amountIn",
          "type": "uint256"
        },
        {
          "internalType": "uint256",
          "name": "_amountOut",
          "type": "uint256"
        },
        {
          "internalType": "address",
          "name": "_fromToken",
          "type": "address"
        },
        {
          "internalType": "address",
          "name": "_toToken",
          "type": "address"
        },
        {
          "internalType": "address",
          "name": "_to",
          "type": "address"
        }
      ],
      "name": "swap",
      "outputs": [],
      "stateMutability": "nonpayable",
      "type": "function"
    },
    {
      "inputs": [],
      "name": "swapGasEstimate",
      "outputs": [
        {
          "internalType": "uint256",
          "name": "",
          "type": "uint256"
        }
      ],
      "stateMutability": "view",
      "type": "function"
    },
    {
      "inputs": [
        {
          "internalType": "address",
          "name": "newOwner",
          "type": "address"
        }
      ],
      "name": "transferOwnership",
      "outputs": [],
      "stateMutability": "nonpayable",
      "type": "function"
    },
    {
      "stateMutability": "payable",
      "type": "receive"
    }
  ],
  "transactionHash": "0xfeb6f2ed8376aed8cd62403b90d6a91a8acb21766f04719a439c5726c59ec593",
  "args": [
    "CamelotAdapter",
    "0x18E621B64d7808c3C47bccbbD7485d23F257D26f",
    238412
  ],
  "solcInputHash": "3d21a2ae1738a87aecb8dd4ff3b9dbac",
  "bytecode": "0x60a0604052346200003b575b62000020620000196200022e565b9162000256565b6040516121906200080c8239608051816119cc015261219090f35b62000044600080fd5b6200000b565b600080fd5b50634e487b7160e01b600052604160045260246000fd5b90601f01601f191681019081106001600160401b038211176200008857604052565b620000926200004f565b604052565b90620000ae620000a660405190565b928362000066565b565b602090620000d1906001600160401b038111620000d557601f01601f191690565b0190565b620000df6200004f565b601f01601f191690565b60005b838110620000fd5750506000910152565b8181015183820152602001620000ec565b929190620000ae916200012b6200012583620000b0565b62000097565b9482865260208601918382011115620000e95762000147600080fd5b620000e9565b906200016c9181601f820112156200016f575b6020815191016200010e565b90565b62000178600080fd5b62000160565b6001600160a01b031690565b6001600160a01b0381165b036200004a57565b90505190620000ae826200018a565b8062000195565b90505190620000ae82620001ac565b90916060828403126200021f575b81516200016c90620001f69085906001600160401b03811162000210575b85016200014d565b936200020681602086016200019d565b93604001620001b3565b62000219600080fd5b620001ee565b62000228600080fd5b620001d0565b62000251620029bc80380380620002458162000097565b928339810190620001c2565b909192565b9162000263919262000268565b608052565b9062000282620000ae926200027c620002a4565b6200064a565b62000800565b6200016c6200016c6200016c9290565b6200016c600062000288565b620000ae33620002be81620002b862000298565b620002cf565b6000805160206200299c8339815191525b90620000ae9162000351565b905b600052602052604060002090565b6200016c906200017e906001600160a01b031682565b6200016c90620002eb565b6200016c9062000301565b90620002dd906200030c565b9060ff905b9181191691161790565b90620003456200016c6200034d92151590565b825462000323565b9055565b9062000366620003628284620003e0565b1590565b6200036f575050565b6200039560016200038f836000620003888782620002db565b0162000317565b62000332565b3390620003cf620003c8620003c87f2f8788117e7eff1d82e926ec794901d17c78024a50270940304540a733656f0d9590565b926200030c565b92620003da60405190565b600090a4565b6200016c91620003f8916200038860009182620002db565b5460ff1690565b156200040757565b60405162461bcd60e51b815260206004820152601460248201527f496e76616c69642061646170746572206e616d650000000000000000000000006044820152606490fd5b50634e487b7160e01b600052602260045260246000fd5b90600160028304921680156200048a575b60208310146200048057565b620000ae6200044c565b91607f169162000474565b9160001960089290920291821b911b62000328565b9190620004bf6200016c6200034d9362000288565b90835462000495565b620000ae91600091620004aa565b818110620004e2575050565b80620004f26000600193620004c8565b01620004d6565b9190601f81116200050957505050565b6200051d620000ae93600052602060002090565b906020601f84018190048301931062000541575b6020601f909101040190620004d6565b909150819062000531565b9062000556815190565b906001600160401b0382116200062e575b6200057f8262000578855462000463565b85620004f9565b602090601f8311600114620005be576200034d929160009183620005b2575b5050600019600883021c1916906002021790565b0151905038806200059e565b601f19831691620005d485600052602060002090565b9260005b8181106200061557509160029391856001969410620005fb575b50505002019055565b01516000196008601f8516021c19169055388080620005f2565b91936020600181928787015181550195019201620005d8565b620006386200004f565b62000567565b90620000ae916200054c565b620000ae90620006786200065c825190565b620006706200066c600062000288565b9190565b1415620003ff565b60026200063e565b156200068857565b60405162461bcd60e51b815260206004820152602860248201527f4d61696e7461696e61626c653a2043616c6c6572206973206e6f742061206d6160448201526734b73a30b4b732b960c11b6064820152608490fd5b620000ae906200070862000702336000805160206200299c833981519152620003e0565b62000680565b62000782565b156200071657565b60405162461bcd60e51b815260206004820152601460248201527f496e76616c6964206761732d657374696d6174650000000000000000000000006044820152606490fd5b906000199062000328565b906200077a6200016c6200034d9262000288565b82546200075b565b6200079b62000792600062000288565b8214156200070e565b620007a881600162000766565b620007b3306200030c565b620007fb620007e37ff43f23b7a28e6f8ce6843a21bd7b48bce778aa913b8c8cf459edf7d770e8d38a926200030c565b92620007ee60405190565b9182918290815260200190565b0390a2565b620000ae90620006de56fe6080604052600436101561001e575b361561001c5761001c600080fd5b005b60003560e01c806301ffc9a7146101c257806306fdde03146101b9578063248a9ca3146101b05780632f2ff15d146101a757806336568abe1461019e5780634ebb79161461019557806369cff80d1461018c5780636b453c1f146101835780637ae267731461017a57806384a33e63146101715780638980f11f146101685780638bb9c5bf1461015f57806391d1485414610156578063a18a7bfc1461014d578063a217fddf14610144578063d547741f1461013b578063d8baf7cf14610132578063eab90da614610129578063ef99893a14610120578063f2fde38b146101175763f87422540361000e576101126109fc565b61000e565b506101126109d5565b506101126109aa565b50610112610941565b506101126108c0565b50610112610898565b5061011261086e565b50610112610828565b506101126107fd565b506101126107d6565b506101126107ae565b50610112610756565b5061011261072e565b506101126106df565b50610112610698565b5061011261064f565b50610112610627565b506101126105fa565b5061011261054c565b506101126104e6565b5061011261022e565b600080fd5b7fffffffff0000000000000000000000000000000000000000000000000000000081165b036101cb57565b90503590610208826101d0565b565b9061021e91602081830312610221576101fb565b90565b610229600080fd5b6101fb565b5034610261575b61025d61024b61024636600461020a565b610a44565b60405191829182901515815260200190565b0390f35b610269600080fd5b610235565b600091031261027957565b610208600080fd5b507f4e487b7100000000000000000000000000000000000000000000000000000000600052600060045260246000fd5b507f4e487b7100000000000000000000000000000000000000000000000000000000600052602260045260246000fd5b9060016002830492168015610304575b60208310146102fc57565b6102086102b1565b91607f16916102f1565b8054600093929161032b610321836102e1565b8085529360200190565b916001811690811561037d575060011461034457505050565b6103579192939450600052602060002090565b916000925b8184106103695750500190565b80548484015260209093019260010161035c565b92949550505060ff1916825215156020020190565b9061021e9161030e565b601f017fffffffffffffffffffffffffffffffffffffffffffffffffffffffffffffffe01690565b507f4e487b7100000000000000000000000000000000000000000000000000000000600052604160045260246000fd5b90601f017fffffffffffffffffffffffffffffffffffffffffffffffffffffffffffffffe016810190811067ffffffffffffffff82111761043457604052565b61043c6103c4565b604052565b9061020861045b9261045260405190565b93848092610392565b03836103f4565b61021e911561044157610473610281565b610441565b61021e60006002610462565b60005b8381106104975750506000910152565b8181015183820152602001610487565b6104c861039c6020936104d1936104bc815190565b80835293849260200190565b95869101610484565b0190565b602080825261021e929101906104a7565b503461050f575b6104f836600461026e565b61025d610503610478565b604051918291826104d5565b610517600080fd5b6104ed565b806101f4565b905035906102088261051c565b9061021e916020818303121561052257610547600080fd5b610522565b503461057a575b61025d61056961056436600461052f565b610b74565b6040515b9182918290815260200190565b610582600080fd5b610553565b73ffffffffffffffffffffffffffffffffffffffff1690565b73ffffffffffffffffffffffffffffffffffffffff81166101f4565b90503590610208826105a0565b919061021e906040848203126105ed575b6105e48185610522565b936020016105bc565b6105f5600080fd5b6105da565b503461061a575b61061561060f3660046105c9565b90610bb3565b604051005b610622600080fd5b610601565b5034610642575b61061561063c3660046105c9565b90610dea565b61064a600080fd5b61062e565b5034610669575b61061561066436600461052f565b6115fd565b610671600080fd5b610656565b61021e916008021c81565b9061021e9154610676565b61021e60006001610681565b50346106b5575b6106aa36600461026e565b61025d61056961068c565b6106bd600080fd5b61069f565b9061021e91602081830312156105bc576106da600080fd5b6105bc565b50346106f9575b6106156106f43660046106c2565b611d1e565b610701600080fd5b6106e6565b919061021e90604084820312610721575b6105e481856105bc565b610729600080fd5b610717565b5034610749575b610615610743366004610706565b9061148f565b610751600080fd5b610735565b5034610770575b61061561076b36600461052f565b611457565b610778600080fd5b61075d565b919061021e906040848203126107a1575b61079881856105bc565b93602001610522565b6107a9600080fd5b61078e565b50346107c9575b6106156107c336600461077d565b9061156b565b6107d1600080fd5b6107b5565b50346107f0575b6106156107eb36600461052f565b611d72565b6107f8600080fd5b6107dd565b503461081b575b61025d61024b6108153660046105c9565b90610b44565b610823600080fd5b610804565b5034610842575b61061561083d3660046106c2565b6118bf565b61084a600080fd5b61082f565b61021e61021e61021e9290565b61021e600061084f565b61021e61085c565b503461088b575b61088036600461026e565b61025d610569610866565b610893600080fd5b610875565b50346108b3575b6106156108ad3660046105c9565b90610d54565b6108bb600080fd5b61089f565b50346108da575b6106156108d53660046106c2565b611d48565b6108e2600080fd5b6108c7565b919060a083820312610934575b6108fe8184610522565b9261090c8260208301610522565b9261021e61091d84604085016105bc565b9361092b81606086016105bc565b936080016105bc565b61093c600080fd5b6108f4565b503461095f575b6106156109563660046108e7565b939290926116c1565b610967600080fd5b610948565b909160608284031261099d575b61021e6109868484610522565b9361099481602086016105bc565b936040016105bc565b6109a5600080fd5b610979565b50346109c8575b61025d6105696109c236600461096c565b91611606565b6109d0600080fd5b6109b1565b50346109ef575b6106156109ea3660046106c2565b611d7c565b6109f7600080fd5b6109dc565b5034610a37575b610a0e36600461026e565b61025d7f339759585899103d2ace64958e37e18ccb0504652c81d4a1b8aa80fe2126ab95610569565b610a3f600080fd5b610a03565b7f7965db0b000000000000000000000000000000000000000000000000000000007fffffffff00000000000000000000000000000000000000000000000000000000821614908115610a94575090565b61021e91507fffffffff00000000000000000000000000000000000000000000000000000000167f01ffc9a7000000000000000000000000000000000000000000000000000000001490565b905b600052602052604060002090565b61058761021e61021e9273ffffffffffffffffffffffffffffffffffffffff1690565b61021e90610af0565b61021e90610b13565b90610ae290610b1c565b61021e905b60ff1690565b61021e9054610b2f565b61021e91610b5e91610b5860009182610ae0565b01610b25565b610b3a565b61021e9081565b61021e9054610b63565b6001610b8d61021e92610b85600090565b506000610ae0565b01610b6a565b9061020891610ba9610ba482610b74565b610bbd565b9061020891610e47565b9061020891610b93565b610208903390610c7c565b61021e61021e61021e9273ffffffffffffffffffffffffffffffffffffffff1690565b61021e9061084f565b6104d1610c0c92602092610c06815190565b94859290565b93849101610484565b610c5361021e9392610c4d610c4d937f416363657373436f6e74726f6c3a206163636f756e7420000000000000000000815260170190565b90610bf4565b7f206973206d697373696e6720726f6c6520000000000000000000000000000000815260110190565b90610c8e610c8a8284610b44565b1590565b610c96575050565b610d359161021e610ccf610cc9610caf610d0395610b13565b610cc3610cbd601492610bc8565b9161084f565b90611128565b92610beb565b610cde602091610cc38361084f565b92610cf7610ceb60405190565b94859384019283610c15565b908103825203826103f4565b6040519182917f08c379a0000000000000000000000000000000000000000000000000000000008352600483016104d5565b0390fd5b9061020891610d4a610ba482610b74565b9061020891610ebd565b9061020891610d39565b15610d6557565b6040517f08c379a000000000000000000000000000000000000000000000000000000000815260206004820152602f60248201527f416363657373436f6e74726f6c3a2063616e206f6e6c792072656e6f756e636560448201527f20726f6c657320666f722073656c6600000000000000000000000000000000006064820152608490fd5b6102089190610e18610dfb33610587565b73ffffffffffffffffffffffffffffffffffffffff841614610d5e565b610ebd565b9060ff905b9181191691161790565b90610e3c61021e610e4392151590565b8254610e1d565b9055565b90610e55610c8a8284610b44565b610e5d575050565b610e776001610e72836000610b588782610ae0565b610e2c565b3390610ead610ea7610ea77f2f8788117e7eff1d82e926ec794901d17c78024a50270940304540a733656f0d9590565b92610b1c565b92610eb760405190565b600090a4565b90610ec88183610b44565b610ed0575050565b610ee46000610e728382610b588782610ae0565b3390610ead610ea7610ea77ff6391f5c32d9c69d2a47ea670b442974b53935d1edc7fd64eb21e047a839171b9590565b507f4e487b7100000000000000000000000000000000000000000000000000000000600052601160045260246000fd5b81810292918115918404141715610f5757565b610208610f14565b91908201809211610f5757565b90610208610f7960405190565b92836103f4565b6104d160209167ffffffffffffffff8111610fbd57601f017fffffffffffffffffffffffffffffffffffffffffffffffffffffffffffffffe01690565b61039c6103c4565b90610fd7610fd283610f80565b610f6c565b918252565b369037565b90610208610ff7610ff184610fc5565b93610f80565b7fffffffffffffffffffffffffffffffffffffffffffffffffffffffffffffffe00160208401610fdc565b507f4e487b7100000000000000000000000000000000000000000000000000000000600052603260045260246000fd5b906001602091611060845190565b81101561106e575b02010190565b611076611022565b611068565b6001908015611088570390565b611090610f14565b0390565b610b3461021e61021e9290565b61021e906110b96110b561021e9460ff1690565b9190565b901c90565b156110c557565b6040517f08c379a000000000000000000000000000000000000000000000000000000000815280610d35600482016020808252818101527f537472696e67733a20686578206c656e67746820696e73756666696369656e74604082015260600190565b9190600290611159611154611145836111408661084f565b610f44565b61114e8561084f565b90610f5f565b610fe1565b91600091603061117161116b8561084f565b86611052565b536111c56111bc7f7800000000000000000000000000000000000000000000000000000000000000926111406001958695881a6111b66111b08861084f565b8b611052565b5361084f565b61114e8361084f565b915b6111e8575b505061021e92936111e26110b561021e9361084f565b146110be565b90946111f38261084f565b86111561127f5761126c611266839261124961122c7f303132333435363738396162636465660000000000000000000000000000000090565b611236600f61084f565b83166010811015611272575b1a60f81b90565b861a6112558a89611052565b536112606004611094565b906110a1565b9661107b565b916111c7565b61127a611022565b611242565b946111cc565b1561128c57565b6040517f08c379a000000000000000000000000000000000000000000000000000000000815260206004820152602860248201527f4d61696e7461696e61626c653a2043616c6c6572206973206e6f742061206d6160448201527f696e7461696e65720000000000000000000000000000000000000000000000006064820152608490fd5b61020890611348611343335b7f339759585899103d2ace64958e37e18ccb0504652c81d4a1b8aa80fe2126ab95610b44565b611285565b6113f2565b1561135457565b6040517f08c379a000000000000000000000000000000000000000000000000000000000815260206004820152601460248201527f496e76616c6964206761732d657374696d6174650000000000000000000000006044820152606490fd5b907fffffffffffffffffffffffffffffffffffffffffffffffffffffffffffffffff90610e22565b906113eb61021e610e439261084f565b82546113b3565b6114076113ff600061084f565b82141561134d565b6114128160016113db565b61141b30610b1c565b6114526114487ff43f23b7a28e6f8ce6843a21bd7b48bce778aa913b8c8cf459edf7d770e8d38a92610b1c565b9261056d60405190565b0390a2565b61020890611311565b61020891906114716113433361131d565b9061147e61020892610b1c565b90611489600061084f565b91611ed5565b9061020891611460565b61020891906114aa6113433361131d565b611515565b156114b657565b6040517f08c379a000000000000000000000000000000000000000000000000000000000815260206004820152601e60248201527f59616b416461707465723a204e6f7468696e6720746f207265636f76657200006044820152606490fd5b61152a611522600061084f565b835b116114af565b61153e8261153783610b1c565b3390611e01565b6114526114487f8c1256b8896378cd5044f80c202f9772b9d77dc85c8a6eb51967210b09bfaa2892610b1c565b9061020891611499565b610208906115856113433361131d565b6115ad565b506040513d6000823e3d90fd5b61058761021e61021e9290565b61021e90611597565b61153e60006115c46115be8261084f565b84611524565b80808080866115da6115d533610b1c565b610b1c565b8282156115f4575bf16115a4576115ef61158a565b6115a4565b506108fc6115e2565b61020890611575565b61021e9291906118c8565b905051906102088261051c565b9061021e916020818303121561161157611636600080fd5b611611565b91908203918211610f5757565b1561164f57565b6040517f08c379a000000000000000000000000000000000000000000000000000000000815260206004820152601760248201527f496e73756666696369656e7420616d6f756e742d6f75740000000000000000006044820152606490fd5b9081526040810192916102089160200152565b9361179261179a916116d56115d587610b1c565b906370a08231916116e560405190565b926116f08160e01b90565b845273ffffffffffffffffffffffffffffffffffffffff831660048501528888888c602088602481895afa97881561185f575b600098611823575b5086602096946117549461177899979461174494611c02565b6040519586948593849360e01b90565b835273ffffffffffffffffffffffffffffffffffffffff1660048301526024820190565b03915afa908115611816575b6000916117e8575b5061163b565b821115611648565b6117cd6117c77fe2bdbc6b7225eb0a972ac943c485a6cc05f7c6811838bce8903f23200fb744fa93610b1c565b93610b1c565b936117e36117da60405190565b928392836116ae565b0390a3565b611809915060203d811161180f575b61180181836103f4565b81019061161e565b3861178c565b503d6117f7565b61181e61158a565b611784565b61174491985096602096946117549482979461184e6117789b8b3d811161180f5761180181836103f4565b9b945094979950945094965061172b565b61186761158a565b611723565b6102089061187c6113433361131d565b6118b4565b9073ffffffffffffffffffffffffffffffffffffffff90610e22565b906118ad61021e610e4392610b1c565b8254611881565b61020890600361189d565b6102089061186c565b60009392919073ffffffffffffffffffffffffffffffffffffffff831673ffffffffffffffffffffffffffffffffffffffff831614158061191c575b61190d57505050565b6119189394506119b2565b5090565b50611927600061084f565b811415611904565b90505190610208826105a0565b9061021e916020818303121561192f57611954600080fd5b61192f565b73ffffffffffffffffffffffffffffffffffffffff9091168152604081019291610208916020905b019073ffffffffffffffffffffffffffffffffffffffff169052565b90815260408101929161020891602090611981565b90611a1a92939160206119c3600090565b956119f06115d57f0000000000000000000000000000000000000000000000000000000000000000610b1c565b611a0e63e6a43905611a0160405190565b9889948593849360e01b90565b83528860048401611959565b03915afa938415611b0b575b600094611adb575b5083611a3d61058760006115a4565b73ffffffffffffffffffffffffffffffffffffffff821603611a5e57505050565b6020929395506115d5611a7091610b1c565b611a9163f140a35a611a9c611a8460405190565b9687958694859460e01b90565b84526004840161199d565b03915afa908115611ace575b600091611ab3575091565b611acb915060203d811161180f5761180181836103f4565b91565b611ad661158a565b611aa8565b611afd91945060203d8111611b04575b611af581836103f4565b81019061193c565b9238611a2e565b503d611aeb565b611b1361158a565b611a26565b15611b1f57565b6040517f08c379a000000000000000000000000000000000000000000000000000000000815260206004820152601660248201527f496e737566666963656e7420616d6f756e74206f7574000000000000000000006044820152606490fd5b61021e90610587565b61021e9054611b7e565b61020894611bd882989795611bbb608096611bb4611be597600060a08901980152565b60208c0152565b73ffffffffffffffffffffffffffffffffffffffff1660408a0152565b87820360608901526104a7565b94019073ffffffffffffffffffffffffffffffffffffffff169052565b6115d5611c2d6115d5611c6f93610587611c35611cb99899611c25818c866119b2565b968794919a90565b8a1015611b18565b60009073ffffffffffffffffffffffffffffffffffffffff8b161015611d0c5750611c6a611c63600061084f565b9799610b1c565b611e01565b611cae636e1fdd7f9560009687958692611c8b6111548561084f565b611c956003611b87565b91873b15611cff575b6040519a8b998a98899760e01b90565b875260048701611b91565b03925af18015611cf2575b611ccc575050565b8161020892903d10611ceb575b611ce381836103f4565b81019061026e565b503d611cd9565b611cfa61158a565b611cc4565b611d07600080fd5b611c9e565b611d18611c6a9161084f565b99610b1c565b610208907f339759585899103d2ace64958e37e18ccb0504652c81d4a1b8aa80fe2126ab95610bb3565b610208907f339759585899103d2ace64958e37e18ccb0504652c81d4a1b8aa80fe2126ab95610d54565b610208903361063c565b610208903390611d94611d8d61085c565b9182610bb3565b610dea565b611db2611dac61021e9263ffffffff1690565b60e01b90565b7fffffffff000000000000000000000000000000000000000000000000000000001690565b73ffffffffffffffffffffffffffffffffffffffff90911681526040810192916102089160200152565b611e44600492611e3561020895611e1b63a9059cbb611d99565b92611e2560405190565b9687946020860190815201611dd7565b602082018103825203836103f4565b6120f9565b15611e5057565b6040517f08c379a000000000000000000000000000000000000000000000000000000000815260206004820152603660248201527f5361666545524332303a20617070726f76652066726f6d206e6f6e2d7a65726f60448201527f20746f206e6f6e2d7a65726f20616c6c6f77616e6365000000000000000000006064820152608490fd5b611e44600492611e3561020895611f02600084611ef18261084f565b8414918215611f0f575b5050611e49565b611e1b63095ea7b3611d99565b9091506020611f1d89610b1c565b63dd62ed3e90611f49611f2f30610b1c565b92611f54611f3c60405190565b9788958694859460e01b90565b845260048401611959565b03915afa918215611fa5575b600092611f7d575b506110b5611f759161084f565b148438611efb565b611f75919250611f9d6110b59160203d811161180f5761180181836103f4565b929150611f68565b611fad61158a565b611f60565b3d15611fcc57611fc13d610fc5565b903d6000602084013e565b606090565b15611fd857565b6040517f08c379a000000000000000000000000000000000000000000000000000000000815280610d35600482016020808252818101527f5361666545524332303a206c6f772d6c6576656c2063616c6c206661696c6564604082015260600190565b8015156101f4565b905051906102088261203b565b9061021e916020818303121561204357612068600080fd5b612043565b1561207457565b6040517f08c379a000000000000000000000000000000000000000000000000000000000815260206004820152602a60248201527f5361666545524332303a204552433230206f7065726174696f6e20646964206e60448201527f6f742073756363656564000000000000000000000000000000000000000000006064820152608490fd5b6000916121068392610b1c565b9082602082019151925af161212261211c611fb2565b91611fd1565b80516121316110b5600061084f565b116121395750565b61215581602061214a610208945190565b818301019101612050565b61206d56fea2646970667358221220017646d47f1b81ce266f89bf6b0f15c7b63f5e6bd114d3c5ebbc4bd44382e85864736f6c63430008110033339759585899103d2ace64958e37e18ccb0504652c81d4a1b8aa80fe2126ab95",
  "devdoc": {
    "kind": "dev",
    "methods": {
      "getRoleAdmin(bytes32)": {
        "details": "Returns the admin role that controls `role`. See {grantRole} and {revokeRole}. To change a role's admin, use {_setRoleAdmin}."
      },
      "grantRole(bytes32,address)": {
        "details": "Grants `role` to `account`. If `account` had not been already granted `role`, emits a {RoleGranted} event. Requirements: - the caller must have ``role``'s admin role. May emit a {RoleGranted} event."
      },
      "hasRole(bytes32,address)": {
        "details": "Returns `true` if `account` has been granted `role`."
      },
      "renounceRole(bytes32,address)": {
        "details": "Revokes `role` from the calling account. Roles are often managed via {grantRole} and {revokeRole}: this function's purpose is to provide a mechanism for accounts to lose their privileges if they are compromised (such as when a trusted device is misplaced). If the calling account had been revoked `role`, emits a {RoleRevoked} event. Requirements: - the caller must be `account`. May emit a {RoleRevoked} event."
      },
      "revokeRole(bytes32,address)": {
        "details": "Revokes `role` from `account`. If `account` had been granted `role`, emits a {RoleRevoked} event. Requirements: - the caller must have ``role``'s admin role. May emit a {RoleRevoked} event."
      },
      "supportsInterface(bytes4)": {
        "details": "See {IERC165-supportsInterface}."
      }
    },
    "version": 1
  },
  "userdoc": {
    "kind": "user",
    "methods": {},
    "version": 1
  },
  "storageLayout": {
    "storage": [
      {
        "astId": 24,
        "contract": "src/contracts/adapters/CamelotAdapter.sol:CamelotAdapter",
        "label": "_roles",
        "offset": 0,
        "slot": "0",
        "type": "t_mapping(t_bytes32,t_struct(RoleData)19_storage)"
      },
      {
        "astId": 2899,
        "contract": "src/contracts/adapters/CamelotAdapter.sol:CamelotAdapter",
        "label": "swapGasEstimate",
        "offset": 0,
        "slot": "1",
        "type": "t_uint256"
      },
      {
        "astId": 2901,
        "contract": "src/contracts/adapters/CamelotAdapter.sol:CamelotAdapter",
        "label": "name",
        "offset": 0,
        "slot": "2",
        "type": "t_string_storage"
      },
      {
        "astId": 5099,
        "contract": "src/contracts/adapters/CamelotAdapter.sol:CamelotAdapter",
        "label": "referrer",
        "offset": 0,
        "slot": "3",
        "type": "t_address"
      }
    ],
    "types": {
      "t_address": {
        "encoding": "inplace",
        "label": "address",
        "numberOfBytes": "20"
      },
      "t_bool": {
        "encoding": "inplace",
        "label": "bool",
        "numberOfBytes": "1"
      },
      "t_bytes32": {
        "encoding": "inplace",
        "label": "bytes32",
        "numberOfBytes": "32"
      },
      "t_mapping(t_address,t_bool)": {
        "encoding": "mapping",
        "key": "t_address",
        "label": "mapping(address => bool)",
        "numberOfBytes": "32",
        "value": "t_bool"
      },
      "t_mapping(t_bytes32,t_struct(RoleData)19_storage)": {
        "encoding": "mapping",
        "key": "t_bytes32",
        "label": "mapping(bytes32 => struct AccessControl.RoleData)",
        "numberOfBytes": "32",
        "value": "t_struct(RoleData)19_storage"
      },
      "t_string_storage": {
        "encoding": "bytes",
        "label": "string",
        "numberOfBytes": "32"
      },
      "t_struct(RoleData)19_storage": {
        "encoding": "inplace",
        "label": "struct AccessControl.RoleData",
        "members": [
          {
            "astId": 16,
            "contract": "src/contracts/adapters/CamelotAdapter.sol:CamelotAdapter",
            "label": "members",
            "offset": 0,
            "slot": "0",
            "type": "t_mapping(t_address,t_bool)"
          },
          {
            "astId": 18,
            "contract": "src/contracts/adapters/CamelotAdapter.sol:CamelotAdapter",
            "label": "adminRole",
            "offset": 0,
            "slot": "1",
            "type": "t_bytes32"
          }
        ],
        "numberOfBytes": "64"
      },
      "t_uint256": {
        "encoding": "inplace",
        "label": "uint256",
        "numberOfBytes": "32"
      }
    }
  }
}